:020000022000DC
:1060000000F000206D630200556302005763020038
:10601000596302005B6302005D6302000000000040
:106020000000000000000000000000005F630200AC
:106030006163020000000000636302006563020008
:106040006763020067630200676302006763020020
:106050006763020067630200D1D403006763020034
:106060006763020067630200A5A90300676302007B
:1060700067630200676302006763020067630200F0
:1060800067630200B95C040035D302006763020055
:106090001D5D0400676302008DDF0300676302007B
:1060A00067630200676302006763020067630200C0
:1060B0006763020067630200000000000000000048
:1060C00067630200676302006763020067630200A0
:1060D000676302006763020067630200000000005C
:1060E00000000000000000000000000000000000B0
:1060F00000000000000000000000000000000000A0
:10610000000000000000000000000000000000008F
:10611000000000000000000000000000000000007F
:10612000000000000000000000000000000000006F
:10613000000000000000000000000000000000005F
:10614000000000000000000000000000000000004F
:10615000000000000000000000000000000000003F
:10616000000000000000000000000000000000002F
:10617000000000000000000000000000000000001F
:10618000000000000000000000000000000000000F
:1061900000000000000000000000000000000000FF
:1061A00000000000000000000000000000000000EF
:1061B00000000000000000000000000000000000DF
:1061C00000000000000000000000000000000000CF
:1061D00000000000000000000000000000000000BF
:1061E00000000000000000000000000000000000AF
:1061F000000000000000000000000000000000009F
:10620000344935480A1A02D0072291438D46334952
:1062100033480A1A06D00722914381F309880222E3
:1062200082F314882F483049304A00F042F8304851
:106230003049314A00F03DF830483149314A00F0E8
:1062400038F831483149324A00F033F831483249A0
:10625000324A00F02EF832483249334A00F029F829
:1062600032483349334A00F024F833483349002296
:1062700000F02AF832483349002200F025F832486D
:106280003249091A082902DB0022026041601F48D6
:106290001F49884205D00268043003B4904703BC0C
:1062A000F7E700208646EC4600200021284A904768
:1062B000FEE7884207D0521A05D0037801300B70F0
:1062C0000131013AF9D17047884202D002700130A1
:1062D000FAE7704700F0002000E8002000F00020FE
:1062E00000F000205CB60400F02D00209C3000205F
:1062F000A0630200A0630200968704005CB604005D
:10630000F02D0020F02D00200C8C04000C8C0400DB
:106310000C8C04000C8C04000C8C04000C8C04000D
:106320000C8C04000C8C04005CB6040008B904005A
:106330009C3000209C3000209C300020A172002066
:10634000A4720020A4720020A4720020A476002071
:10635000256B0200FEE7FEE7FEE7FEE7FEE7FEE74D
:10636000FEE7FEE7FEE7FEE700F002B8FFF7FCBF3E
:1063700008484FF00701884385460748804707488B
:10638000016841F470010160BFF34F8FBFF36F8F5D
:10639000FFF736BF00F00020C5E4030088ED00E001
:1063A00041DF70470D4B1B6813F4804F03D00C4B3B
:1063B0001B68032B00DC704700B585B0094BD3F890
:1063C000043502920191084A00929F220749042055
:1063D00008F0D2F805B05DF804FB00BF30300020B3
:1063E0002C30002000100140988C04008E8C04009A
:1063F0000D4B1B6813F4804F03D00C4B1B68032B11
:1064000000DC704700B585B0094BD3F80435029223
:106410000191084A0092A8220749042008F0ACF82C
:1064200005B05DF804FB00BF303000202C300020A8
:1064300000100140C08C04008E8C040010B50C4686
:10644000112001F0A7FA207010BD000010B582B035
:106450000C460D4B1B6813F4804F03D00B4B1B688D
:10646000032B05DC2146112001F0B8FA02B010BD63
:10647000074BD3F804350191064A00928E22064953
:10648000042008F079F8EDE7303000202C300020AF
:1064900000100140E88C04008E8C040000B583B02D
:1064A0000F4B1B6813F4804F03D00E4B1B68032B5C
:1064B0000BDC1EF077FA0322C8210F2001F0FAFA54
:1064C0000CF002F903B05DF804FB074BD3F8043578
:1064D000064A0092CC220649042008F04DF8E8E76D
:1064E000303000202C30002000100140008D0400CE
:1064F0008E8C040010B582B0441C374B1B6813F41B
:10650000804F03D0354B1B68032B18DC012C22D0A5
:10651000042C42D0304B1B6813F4804F30D02F4BEB
:106520001B68032B2CDD2E4BD3F804352D4A00922B
:106530004FF485722C49042008F01EF820E0284B07
:10654000D3F804350194294A0092E8222649042010
:1065500008F012F8DAE7204B1B6813F4804F03D0E1
:106560001E4B1B68032B0DDC112001F013FA80F089
:106570000101C9B2112001F031FA1D4800F032FCCE
:1065800002B010BD164BD3F804351A4A0092F0221F
:106590001549042007F0F0FFE6E70CF027F8A0B952
:1065A0000D4B1B6813F4804FEAD00C4B1B68032B78
:1065B000E6DD0B4BD3F804350F4A00924FF482729C
:1065C0000949042007F0D8FFDAE70DF0E7FD0CF0E9
:1065D00001F8FFF763FFD3E7303000202C300020B4
:1065E00000100140008F04008E8C04001C8D0400FC
:1065F000002E0020308D0400408D040000B583B0D3
:106600003138032814D90D4B1B6813F4804F11D077
:106610000B4B1B68032B0DDD0A4BD3F804350A4ADC
:1066200000924FF48C720949042007F0A5FF01E0A5
:10663000FFF760FF03B05DF804FB00BF30300020BF
:106640002C30002000100140008F04008E8C0400CC
:1066500008B50378232B00D008BDFFF71FFFFBE729
:1066600000B58DB01EF05AF92022002103A822F0B7
:106670002DF801238DF80C3007238DF80F300623F9
:106680008DF81430244B0793244B0B93244903A813
:106690000BF0B0FF034618B3002B32D00B2B2FD1D9
:1066A0001EF080F91F4B1B6813F4804F03D01E4B64
:1066B0001B68032B18DC1B4B1B6813F4804F20D086
:1066C000194B1B68032B1CDD184BD3F80435184AF3
:1066D000009240F263121749042007F04DFF10E0CA
:1066E0001EF03CF90346D7E7104BD3F80435124AA5
:1066F00000924FF4B1720F49042007F03DFFDAE732
:1067000013B90DB05DF804FB0C4A4FF4B471184690
:1067100018F002F8F5E700BF5166020011690200A7
:106720009C300020303000202C3000200010014030
:10673000C88D04008E8C0400788D0400288C040021
:1067400000B583B01D4A05214FF4103007F0F8FE64
:106750001B4B1B6813F4804F03D01A4B1B68032B91
:1067600013DC1FF0DFFAE0B901F0E4F9164801F09C
:1067700015FAE0B901F050FD01F084FD01F0B0FD23
:10678000FFF76EFF03B05DF804FB104BD3F8043540
:106790000F4A009240F26F120E49042007F0ECFEFF
:1067A000DFE70D4A40F2711117F0B6FFDCE70A4A45
:1067B00040F2751117F0B0FFDCE700BF15E50200ED
:1067C000303000202C300020F56402000010014021
:1067D000048E04008E8C0400288C040000B583B065
:1067E00000213F4800F034FB002835D13D4B1B68A9
:1067F00013F4804F03D03C4B1B68032B31DC00218A
:106800003A4800F0A5FB002839D1364B1B6813F439
:10681000804F03D0344B1B68032B35DC00213448F8
:1068200000F08CFE00283DD13249314800F0B4FE22
:1068300000283CD12E492A4800F062FB00283BD1B9
:10684000284B1B6813F4804F03D0274B1B68032B86
:1068500037DC03B05DF804FB274AB02117F05CFF7A
:10686000C4E7264BD3F804351D4A12880192244A06
:106870000092B1222349042007F07EFEBFE71E4AA2
:10688000B52117F049FFC0E71C4BD3F80435174A70
:10689000128801921C4A0092B6221A49042007F07D
:1068A0006BFEBBE7144AB92117F036FFBCE7124A6A
:1068B000BA2117F031FFBDE70F4ABB2117F02CFFBB
:1068C000BEE70E4BD3F80435094A128801920F4AED
:1068D0000092BC220B49042007F04EFEB9E700BF2E
:1068E000002E0020303000202C300020A03000206E
:1068F000F82E0020EC2E0020288C0400001001400F
:10690000348E04008E8C0400508E04006C8E0400C3
:1069100000B583B00C4B1B6813F4804F03D00B4BB6
:106920001B68032B04DCFFF759FF03B05DF804FB81
:10693000074BD3F80435074A009240F24312064948
:10694000042007F019FEEEE7303000202C30002044
:1069500000100140888E04008E8C040010B504469F
:1069600000210F2001F090F804EB84046200322132
:10697000032001F09FF810BD08B503781D2B00D04F
:1069800008BD044800F0A2FA0028F9D017F0B6FEBE
:10699000F6E700BF002E002008B501F0BDF808BDE5
:1069A00000B585B003A811F0BDFF0D4B1B6813F4B3
:1069B000804F03D00B4B1B68032B02DC05B05DF846
:1069C00004FB094BD3F80435BDF80C200192074AAB
:1069D000009240F22D120649042007F0CDFDEDE7AC
:1069E000303000202C30002000100140A88E040020
:1069F0008E8C040030B58BB06421254800F06CFF0C
:106A0000244B1B788BB903AC234D0FCD0FC495E8F5
:106A1000070084E8070003A800F0F6FE38B11F4A1B
:106A200040F2931117F078FE01E0FFF7B9FF01F093
:106A30007DFD01F0EBF81A4805F0D0F90BF034FEBB
:106A400098B9184B1B6813F4804F03D0164B1B6882
:106A5000032B10DC00210C2001F016F80222C821C3
:106A60000C2001F027F80BB030BD0C4A40F29F110A
:106A700017F052FEE5E70D4BD3F804350C4A0092AF
:106A800040F2A1120B49042007F076FDE2E700BFB7
:106A9000FD6502009C300020DC8E0400288C040080
:106AA000F02D0020303000202C300020001001405C
:106AB000008F04008E8C040000B583B0144B1B685B
:106AC00013F4804F03D0134B1B68032B13DC01F02E
:106AD000D9FB01F005FCFFF763FF01F01DF8002171
:106AE0000F2000F0D1FF0422C8210F2000F0E2FFA8
:106AF00003B05DF804FB084BD3F80435074A009255
:106B00004FF499720649042007F036FDDFE700BF15
:106B1000303000202C30002000100140C08E0400D6
:106B20008E8C040008B5FFF70BFEFFF763FFFFF73D
:106B300037FCFCE730B583B00446002380F86C30A6
:106B40002D23836631B14A68C0F880200B68036644
:106B500003B030BD00250195D0F8F030186B836884
:106B60005B6801AA29469847019B2366C4F88050B8
:106B7000EEE708B5836B13B190F84810984708BD4D
:106B800008B59C3801F008FA08BD00002DE9F04175
:106B900084B004460F4615461E46A0F1EC0850F896
:106BA000B03C0DF10F0140469847A4F1A20214F841
:106BB000BC1C38461DF0FCFD50B90196029514F836
:106BC000A22C9DF80F309A4208D104B0BDE8F081A4
:106BD000084A40F20F1117F09FFDEEE79C3C20465B
:106BE00001F0DAF901A94046FFF7A4FF204601F0C1
:106BF000C5F9EAE74490040008B50346084613F8CF
:106C0000A42C13F8BC1C1DF0BBFD00B908BD034A41
:106C10004FF4817117F080FDF8E700BF4490040045
:106C200030B583B004461546124B1B6813F4804FF1
:106C300003D0114B1B68032B11DCE36B04F14801FB
:106C40002046984794F848302B7094F84A306B707F
:106C500004F1500001F0AEF9686003B030BD074B9D
:106C6000D3F80435064A009287220649042007F02B
:106C700083FCE2E7303000202C300020001001407F
:106C8000AC9004009D900400F0B585B00446154614
:106C90001F460A9E224B1B6813F4804F03D0214BE2
:106CA0001B68032B1CDCE36B0DF10F01204698479A
:106CB000297884F84A1094F830001DF039FDE0B9C5
:106CC0002A789DF80F309A421CD1002536B194F8ED
:106CD0004830337094F84A307370756005B0F0BD79
:106CE000114BD3F8043512780192104A00929A227F
:106CF0000F49042007F040FCD5E70E4AA22117F007
:106D00000BFDDDE739462046FFF714FF256E04F141
:106D1000500001F033F9D4F8F00000F051FCD5E751
:106D2000303000202C30002000100140B8900400CA
:106D30009D9004004490040030B583B00446A0F157
:106D4000500510F8082C10F8063C9A4218D114F897
:106D5000083C8DF8003014F8063C8DF80130002313
:106D600001936946A4F150001DF032FC54F8103C28
:106D700023B114F8062C216A2846984703B030BD89
:106D800000F8083C2846FFF7F4FEE0E730B583B092
:106D90000446A0F1500510F8073C13B910F8063C62
:106DA0004BB954F8103C23B114F8062C216A28463C
:106DB000984703B030BD00F8083C2846FFF7D9FEDD
:106DC0000023009314F8083C8DF8003014F8063CBA
:106DD0008DF80130236A0193694628461DF0F8FBBF
:106DE000DFE7000030B583B00446503001F0D4F83E
:106DF00094F84850E36B04F148012046984794F812
:106E0000483084F84A308DF800308DF80130002386
:106E10000193694620461DF0DBFB94F8481094F876
:106E200030001DF085FC28B994F84830AB4207D1FA
:106E300003B030BD054A40F2371117F06DFCF3E79F
:106E4000D4F8F00000F0BCFBF2E700BF449004006F
:106E500070B310B50446194BC362C36B5BB3836B4D
:106E600033B120461DF082FB034630B1184610BDF9
:106E7000036C002BF5D10E23F8E704F130001DF070
:106E8000ABFC03460028F1D10D4BC4F8EC300023D5
:106E900023650C4A6265A3650B4BE36504F1500062
:106EA000C4F8D8000123636601F0A8F80346DDE7C3
:106EB0000E23184670470E23D8E700BFC890040081
:106EC000D09004008D6D0200396D020010B582B0C3
:106ED00004460DF1070190F830001DF03FFC30B979
:106EE0009DF8071020461DF07FFB02B010BD034A3D
:106EF00040F2731117F010FCF2E700BF4490040059
:106F000020B129B1C0F8F010002070470E20704762
:106F10000E20704708B51146007B1EF013F800B92B
:106F200008BD024A4B2117F0F7FBF9E7DC9004009B
:106F300008B511681960007B1DF0F0FF00B908BDAD
:106F4000024A562117F0E8FBF9E700BFDC90040085
:106F500060B110B50446064B83601DF02BFF00B1F5
:106F600010BD04F10C001DF0FFFFF9E70E20704783
:106F7000409104005038704710B586B0FFF7FAFF13
:106F80000446154B1B6813F4804F03D0134B1B684A
:106F9000042B0BDC0023A4F84830236C23B1B4F895
:106FA0004A20216F2046984706B010BD0C4BD3F8FD
:106FB000043590F83420B0F84A10006F0490606FE8
:106FC000039002910192074A00924FF4C67206495B
:106FD000052007F0D1FADDE7303000202C3000200A
:106FE00000100140B0910400A191040000B583B0ED
:106FF000FFF7C0FF0D4B1B6813F4804F03D00C4B01
:107000001B68042B02DC03B05DF804FB094BD3F8CA
:10701000043590F834200192074A009240F283121E
:107020000649052007F0A8FAEDE700BF3030002040
:107030002C30002000100140F4910400A1910400C4
:1070400000B585B08DF80410B0F84830ADF80630C2
:10705000B0F84A30ADF80830039201A904301EF0B0
:10706000AFF905B05DF804FB10B584B0FFF782FFFF
:107070000446B0F84A20A0F848200023A0F84A307F
:10708000134B1B6813F4804F03D0124B1B68042B67
:107090000DDC236C23B1B4F84A20216F20469847B9
:1070A000226F00212046FFF7CBFF04B010BD0A4B32
:1070B000D3F8043590F8341002920191074A0092F7
:1070C0004FF4D2720649052007F056FAE1E700BFF7
:1070D000303000202C3000200010014010920400BD
:1070E000A191040070B138B50C4605463C301EF045
:1070F0000BFB00B138BD044BAB63214628461EF0A4
:107100006DF9F7E70E2070477C93040038B504460C
:1071100080F86C20012343662D2383660D4629B138
:107120006B68C4F880302B68236638BD784601F060
:10713000BBF9F5E72DE9F0418AB015461F46109ED0
:107140000446E0B1DAB1B4F8482029888A421AD15D
:10715000002246B13270B4F848307380B4F84A3037
:10716000B380236EB360424B1B6813F4804F03D08F
:10717000404B1B68032B67DC0AB0BDE8F081784602
:1071800001F092F9DFE70DF11B0294F83C001EF0CC
:107190007FFA8046002855D1002308930993D7B180
:1071A000002239462046FFF7B1FF2B88A4F84A3069
:1071B000D4F8EC30434520D82D4B1B6813F4804F96
:1071C00003D02C4B1B68042B26DC04F1500000F08C
:1071D000D5FE0022BDE7236B9B685B684BB1206B3B
:1071E00083685B6807AA00219847079B089308AF4C
:1071F000D6E7784601F058F9F1E708F13A0354F878
:10720000230003685F68236ED4F880209DF81B106C
:10721000B84708F10108CBE7174BD3F804352A88A3
:10722000216E0491D4F8801003919DF81B100291F7
:107230000192124A009240F22B121149052007F0E8
:107240009BF9C2E7022284E70B4BD3F80435B4F86C
:107250004810B4F84A00039002910192094A009242
:107260004FF49F720649042007F086F984E700BFB7
:10727000303000202C3000200010014048920400E3
:10728000A19104008092040070B506460D460024CA
:1072900005E0094A622117F03FFA023501340F2C4C
:1072A00008D82A46E1B296F83C001EF0F9F9002809
:1072B000F3D0EEE770BD00BF4891040030B583B055
:1072C00014460546A0B19AB100232370B5F84830A2
:1072D0006380211D2846FFF7D7FF0E4B1B6813F470
:1072E000804F03D00C4B1B68032B05DC03B030BD73
:1072F000784601F0D9F8E7E7084BD3F804356288FF
:107300000192074A0092F8220649042007F034F956
:10731000ECE700BF303000202C300020001001408E
:10732000B4920400A191040030B587B0144605461C
:10733000E0B1DAB100232370B5F848306380B5F8C6
:107340004A30A38095F87C30022B13D12B6F0BB100
:107350004FF0FF33A360144B1B6813F4804F03D02E
:10736000124B1B68032B0BDC07B030BD784601F0D5
:107370009BF8DFE705F1500000F01CFEA060EAE793
:107380000B4BD3F804356288A188686F0490A0681D
:10739000039002910192074A0092E22206490420DA
:1073A00007F0EAF8E0E700BF303000202C30002082
:1073B00000100140D8920400A1910400F0B587B0FC
:1073C00016461D460446E0B1DAB10DF117023188C8
:1073D00094F83C001EF07EF9074620BBB4F8482024
:1073E00033889A4203D0B4F84A20934217D104F16B
:1073F000500000F0D1FD0023A4F84A30A4F8483032
:107400000DE0784601F050F8DFE707F13A0354F851
:10741000230003689B689DF8171098470137D4F83C
:10742000EC30BB42F1D845B100232B70B4F84830A2
:107430006B80291D2046FFF727FF0E4B1B6813F4B6
:10744000804F03D00C4B1B68032B01DC07B0F0BD51
:107450000A4BD3F80435B4F84A20B4F84810029126
:107460000192074A0092C3220649042007F084F8DB
:10747000ECE700BF303000202C300020001001402D
:1074800020930400A1910400F0B587B015461C4676
:10749000074628B322B30DF11702298897F83C005C
:1074A0001EF0D2F8064650BB2B88A7F84830D7F814
:1074B000EC30B34218D800253CB12570B7F84830FD
:1074C0006380211D3846FFF7DFFE174B1B6813F45E
:1074D000804F03D0154B1B68032B12DC07B0F0BDA7
:1074E000784600F0E1FFD6E706F13A0357F82300AB
:1074F00003681B689DF8171098470136D7E70125E8
:10750000DAE70B4BD3F80435B7F84A20B7F8481040
:10751000039102920195074A00929822064904209D
:1075200007F02AF8DAE700BF303000202C300020C6
:107530000010014048930400A191040000B310B56D
:107540000446036CFBB1FFF7CDFD034608B11846B6
:1075500010BD0023A4F848300C4A22650C4A62652D
:10756000A3650C4BE36504F15000C4F8D80000F0AB
:1075700045FD03460028EAD10022C4F8EC20E6E7E6
:107580000E23184670470E23E1E700BFED6F02009F
:10759000796F020069700200034658B161B1D0F8FA
:1075A000EC0058B900F13A0243F82210421CC3F82B
:1075B000EC2070470E2070470E2070470420704763
:1075C0000023A0F84830704769DF704703781F2B0D
:1075D00000D07047014B01221A70FAE7FB300020FF
:1075E0003A4B1B78002B70D000B587B0012804D02F
:1075F000032863D007B05DF804FB0023019301A9C1
:10760000012016F065FB002842D1002303930122DC
:10761000114662F307118DF80C108DF80D200493BC
:10762000ADF814301023ADF81630019A03A94120AB
:10763000FFF7CAFF78BB01A816F0A4FB70BB244B70
:107640001B6803B198470123029302A90DF10200C0
:1076500011F01AFF28BBBDF8020011F02DFB0DF14F
:10766000010111F0DBFCF8B90CF0E8FA9DF801100B
:1076700000200CF0DDFDD0B904F042FBD8B9134B6B
:1076800000221A70124B5B68002BB3D09847B1E709
:1076900017F034F8B9E717F031F8CCE717F02EF807
:1076A000CDE717F02BF8D6E717F028F8DCE7784697
:1076B00000F0FAFEE0E717F021F8E0E716F0DCFB57
:1076C000002897D017F01AF894E77047FA30002096
:1076D000FC30002008B5064B01221A70054804F062
:1076E0007DFB04F05FFB00B908BD17F007F8FBE76E
:1076F000FA300020E82F002008B503781C2B00D0BA
:1077000008BD074B1B78002BFAD016F0F9FB18B90F
:10771000044804F067FBF3E716F0F0FFF8E700BF5A
:10772000FA300020E82F002008B5094B1B7863B918
:107730000849094817F09CFC40B903230022074977
:107740004969074817F0B0FC00E0082008BD00BFF9
:10775000FB3000201831002084340020FC30002051
:107760005033002008B50378023B082B3FD8DFE8F0
:1077700003F01C05113E3E2C3E3E36001E4B9B681E
:10778000002B34D0007A002831D01C4A012111701E
:1077900098472CE0184BDB684BB3184A127832B389
:1077A000164A00211170984721E0154B1B784BB900
:1077B000114B1B691BB1114A002111709847FFF74B
:1077C000B3FF14E0FFF786FF11E010220A4B99691E
:1077D0000C4817F0F3FC50B116F090FF07E08168F9
:1077E000C0680AF087FE18B9054B01221A7008BD5F
:1077F00016F084FFF8E700BFFC300020F8300020CE
:10780000F93000205033002070B586B00446214A7C
:1078100003AB07CA03C323F8022B120C1A701E4EC7
:1078200035460FCC0FC594E8070085E80700B3691B
:10783000002B2DD0194B009303AB194A19491A4854
:1078400017F0D4FB034610B1184606B070BD1748B8
:1078500019F02EF90146144817F0F4FB03460028EE
:10786000F2D1134819F09EFA03460028ECD11048D3
:1078700019F0CEFA01460C4817F0E4FB0346002845
:10788000E2D10C4804F0AAFAFFF74EFF0346DBE70B
:107890000723D9E790930400FC30002065770200AD
:1078A000183100208434002050330020383100206B
:1078B00000330020F42F002008B5064B1B681BB9CD
:1078C00006E0044B1B68984714F0E2F90028F8DA48
:1078D00008BD00BFC434002010B50C46144B18601E
:1078E000144A012114481EF057FAA0B9610CE003B4
:1078F00041F26F7200238B4208BF824210D24FF4D4
:107900007A72002320F080FD014600220B481EF011
:1079100059FA38B910BD0A4A4A2116F0FDFEE5E7CA
:107920000521F2E7064A4B2116F0F6FEF2E700BF0A
:10793000C4340020B978020004940400C834002044
:107940009C93040070B50546002403E00D4A934261
:107950000ED80134032C14D80B4B1B5DAB42F8D16D
:107960000A4B1E6804F094FD331AEFD5831BEDE734
:1079700004F08EFD054B1860054B1B6820469847A8
:10798000E7E770BD801A060010940400143500204B
:10799000103500204FF0A043D3F80435C34013F056
:1079A000010F0CBF012000207047000070B5054694
:1079B0000024264606E0084B185DFFF7EBFFA040C9
:1079C00006430134032C04D80123A3402B42F8D0F2
:1079D000F1E7304670BD00BF1494040008B511B142
:1079E00015F0A7FC08BD15F09DFCFBE770B505463A
:1079F00000240BE0094B1E5D3046FFF7CBFF80F003
:107A00000101C9B23046FFF7E9FF0134032C04D865
:107A10000123A3402B42F8D0ECE770BD149404007E
:107A200010B5144B1B684BB1134B1868FFF7DEFF02
:107A3000104B1C68013C1C6024B110BD002016F0E6
:107A40005DFEF1E70D481EF0DFF909E00C4B196807
:107A5000E14001F001010B4B185DFFF7BFFF01345E
:107A6000032CEAD80123A340034A12681342F6D03C
:107A7000ECE700BFE8340020EC340020F0340020B4
:107A8000183500201494040070B505460E460024F5
:107A900005E03146064B185DFFF7A0FF0134032CCB
:107AA00004D80123A3402B42F8D0F2E770BD00BFF9
:107AB000149404003AB338B50C461346132900D881
:107AC00038BD114A10605B00013B104A1360FFF79C
:107AD0006DFF0F4B18600025610CE0034FF47A72C4
:107AE000002310F5FA70694120F08EFC01462A4609
:107AF00008481EF067F90028E2D10121024B1868FE
:107B0000FFF7C2FFDCE77047EC340020E8340020C8
:107B100018350020F034002008B504481EF074F930
:107B20000021034B1868FFF7AFFF08BDF0340020B9
:107B3000EC34002010B582B015F088FB40B1002471
:107B4000ADF804408DF8064001238DF8053009E0BA
:107B500015F032FB0028F2D016F0D0FDEFE716F05A
:107B6000CDFD0134032C07D801A9094B185D15F090
:107B700077FB0028F5D0F2E7064A012106481EF0FF
:107B80000BF908B902B010BD16F0B8FDFAE700BF56
:107B900014940400217A02000C94040060B310B520
:107BA00082B0164A106015F051FB40B1144B1B68AF
:107BB000ADF804301B0C8DF8063000240EE015F0F3
:107BC000FBFA0028F2D016F099FDEFE716F096FDCB
:107BD00001210C4B185D15F01DFC0134032C08D855
:107BE000094A01A9074B185D15F0AAFB0028EFD040
:107BF000ECE7002002B010BD0E20704710350020C9
:107C0000089404001094040045790200002800F054
:107C100082802DE9F04FD1B004463F4B1B6813F42E
:107C2000804F03D03D4B1B68032B0BDC3A4B1B688A
:107C300013F4804F03D0394B1B68032B2ADC51B05F
:107C4000BDE8F08F00230F2B0FD8E25C34490D689C
:107C5000100959002E5C0FA800F8136002F00F0203
:107C60000131AA5C42540133EDE70FAA00238DF8DD
:107C70005C3003F1804303F58833D3F80435029276
:107C8000284A0192284A009242222849042006F0FC
:107C900073FCCBE7264BD3F804350D932068020222
:107CA00002F47F0242EA0062010A01F47F4142EAE3
:107CB000010CA5882A0292B2E688310289B2277A9D
:107CC000637A94F80AE094F80B8094F80C9094F896
:107CD0000DA094F80EB0E47B0B94CDF828B0CDF84D
:107CE00024A0CDF82090CDF81C80CDF818E00593A5
:107CF000049741EA1621039142EA152202924CEAC6
:107D0000106001900B4A00920D9B4322074904200A
:107D100006F032FC93E77047303000202C30002012
:107D2000343000208494040098940400719404007A
:107D300000100140A094040008B5034B53F8203014
:107D40000846984708BD00BFE094040008B5034BFF
:107D500053F820300846984708BD00BFF894040047
:107D600008B5836803B1984708BD006B003818BF99
:107D7000012070470369013B13F1030F03D84369E6
:107D80001BB900207047002070470120704708B5DC
:107D9000024601218C3009F0F0FC08BD08B50A4606
:107DA00000230B63022102F18C0009F0E6FC08BD00
:107DB00090F82C30022B01D10020704770B5054699
:107DC00038301CF00EFF4B01420143EAD064131A15
:107DD00064EB0102940044EA93749E002246331837
:107DE00041EB0202D40044EA5374D900C80B40EAC4
:107DF0004440E10B2A6A0023994208BF904201D314
:107E0000012070BD0020FCE710B504460023036389
:107E10000362703004F0F0FA04F138001CF01DFF2A
:107E200010BD10B5044638301CF017FF0023236244
:107E3000E3680BB12046984710BD38B5044600F101
:107E4000200500F110030FCB85E80F002046FFF757
:107E5000E8FF38BD08B5FFF7E4FF08BD2DE9F8439A
:107E6000044600F1380528461CF0F7FE04F1200610
:107E700004F110030FCB86E80F00636A83EAE3780E
:107E8000A8EBE378002B4CD0216A4A01CB0E521AA2
:107E900063F10003980040EA92709600761840F172
:107EA0000007FB0043EA5673F20016461F4642469F
:107EB00000233046394620F0A7FA06460F46A16A4D
:107EC0004A01CB0E521A63F10003980040EA927007
:107ED0004FEA820C1CEB010240F10003D90041EA99
:107EE0005271D000804689468F4208BF864201D336
:107EF000B046B946B9F1000F08BFB8F57A7F14D281
:107F000021220023C4E91023012384F838302846B5
:107F10001CF07AFE18B963680BB120469847BDE89B
:107F2000F883784600F0C0FAAEE74FEAC93141EA7B
:107F300058414FEAC830064E064A002380194FF0D8
:107F4000000646EB010120F05FFAC4E91001DBE70F
:107F500020A1070040420F0010B5044604F098FA33
:107F6000236B4FF47A7101FB030104F1700004F0FC
:107F70005BFA23680BB12046984710BD10B5044644
:107F800030B12246002104F18C0009F0F6FB10BD4F
:107F9000784600F089FAF4E710B5044630B122467D
:107FA000032104F18C0009F0E8FB10BD784600F0D5
:107FB0007BFAF4E770B50446E0B1256A04F13800B5
:107FC0001CF00FFE4B01420143EAD064131A64EB2C
:107FD0000102940044EA93749E002246331841EB58
:107FE0000202D10041EA5371D800C30B43EA414376
:107FF000E81A70BD784600F057FADEE738B5044657
:1080000090B1C4F880400A4BA367A464094BE364B1
:1080100004F138001CF038FE0546074904F18C00D5
:1080200009F095FB284638BD784600F03DFAE8E7B0
:108030009D7D02008F7D02003095040072DF704745
:1080400073DF704774DF70472DE9F047A2B0064632
:108050000F469046314A02F1040900255560D5606B
:108060002F480378C3EB431C2E4C644414602E4904
:10807000614491601F2191809181013303F00103DC
:1080800003704FF03C0A5246294613A820F01EFB0D
:1080900006238DF84F30ADF8486001238DF84A3043
:1080A000ADF85C3012AA1892ADF83C60ADF8408093
:1080B00011970DEB0A021D928DF878305246294631
:1080C000684620F003FB02238DF800304A46214623
:1080D00013A815F0EFFC90B9104B03F10C0299684E
:1080E000684615F0E7FC68B9104A0C491048FFF7DC
:1080F000A5FF082809D070B922B0BDE8F08716F0B6
:10810000FDFAE9E716F0FAFAEEE70022034908481B
:10811000FFF794FFEFE716F0F1FAEDE76035002086
:108120001C35002020350020703500200430002050
:1081300000300020B0F5202F0AD2074BA3FB00230C
:10814000DB0808B103B90123044A938191607047A9
:108150004FF6FF73F5E700BFCDCCCCCC0430002048
:1081600008B50121054B1878FFF76AFF18B9002000
:1081700004F0E2FD08BD16F0C1FAF8E70030002077
:1081800008B5044B1878FFF75DFF00B908BD16F07D
:10819000B5FAFBE70030002076DF70477ADF7047E2
:1081A0007CDF704769DF704708B516F0A7FA08BD95
:1081B00008B503F01BFE08BD00B583B0037823B1FA
:1081C000012B0BD003B05DF804FB3B214088FFF787
:1081D000E3FF0028F6D016F091FAF3E7094B1B688D
:1081E00013F4804FEED0084B1B68032BEADD074BDE
:1081F000D3F80435064A009268220649042006F0A6
:10820000BBF9DFE7303000202C30002000100140A7
:10821000B49504009995040000B585B015F02CFEC6
:1082200018BB0023039303A9012015F051FDF8B9F1
:10823000002300930122114662F307118DF800100C
:108240008DF801200193ADF808301023ADF80A3005
:10825000039A69464120FFF7A5FF60B903A815F00E
:1082600091FD58B905B05DF804FB16F047FAD8E760
:1082700016F044FADCE716F041FAEFE716F03EFAA2
:10828000F0E7000000B585B09DF80C30012262F3E4
:10829000030362F307138DF80C3010220F4903A873
:1082A000FFF77EFF98B97823ADF80430C823ADF806
:1082B00006300023ADF808304FF4C873ADF80A302B
:1082C00001A8FFF76BFF28B905B05DF804FB16F0B5
:1082D00015FAE8E716F012FAF6E700BFE095040099
:1082E00000B58BB07823ADF80430C823ADF8063064
:1082F0000023ADF808304FF4C872ADF80A20069399
:10830000079301AA039240F6CD4204924FF48032C3
:10831000059203228DF81820ADF81A308DF81C3024
:10832000064B0893064B099303A815F08BFF10B971
:108330000BB05DF804FB16F0E1F9F9E7B981020032
:10834000A98102000620704700B587B044F20103FE
:10835000984262D01BD8012836D041F201039842DE
:1083600076D1474B1B6813F4804F36D0454B1B68C2
:10837000002B32DD444BD3F8043502920191434A7D
:10838000009263224249012006F0F6F825E044F20B
:10839000020398425CD13A4B1B6813F4804F1CD007
:1083A000384B1B68002B18DD374BD3F804351068A9
:1083B0000390526802920191364A00926922344930
:1083C000012006F0D9F808E02D4B1B6813F4804F0C
:1083D00003D02C4B1B68002B12DC4FF0A0434FF452
:1083E000F012C3F81825C3F80C25EFF3108372B60A
:1083F0004DF6AD6C284B1B78002B3ED030BFF9E713
:10840000214BD3F8043502920191244A0092602254
:108410001F49012006F0B0F8DFE7194B1B6813F481
:10842000804FDAD0174B1B68002BD6DD164BD3F8E4
:10843000043510680490506803900291926801928C
:10844000174A009273221249012006F095F8C4E7FA
:108450000B4B1B6813F4804FBFD00A4B1B68002BDB
:10846000BBDD094BD3F8043501910E4A00927B2203
:108470000749012006F080F8AFE707B05DF804FB7C
:10848000303000202C300020001001407C96040089
:108490004D960400A09604001C3000206096040055
:1084A000C0960400E496040000B583B001460023A2
:1084B0000093054B01936A4644F20200FFF744FF24
:1084C00003B05DF804FB00BFE096040010B403465F
:1084D000044C006859689A68DB680FC45DF8044B67
:1084E000704700BFB03500200D4B0E4A92E80300E4
:1084F00083E8030003F108020B4903C982E8030083
:1085000093F9062002F00F0242F040029A7193F9AB
:10851000082002F03F0242F080021A72704700BF4A
:10852000B035002060000010A40000100048704723
:10853000B035002000231F2B09D8074901EBC300E9
:1085400000224280426001F833200133F3E7034BFD
:1085500000221A60704700BFC0350020C0360020DE
:1085600030B405460F4B1B6800240AE01F230E4A57
:1085700012F83300A0B102EBC3025288AA4207D01E
:1085800001341F2C0BD85A1E002BEFD01346EEE7F8
:10859000054A02EBC30252688A42F1D100E0002092
:1085A00030BC7047C0360020C035002030B40A4AC5
:1085B00013680A4C04EBC30568806960012104F864
:1085C00033100B441360202B01D030BC704713468E
:1085D00000221A60F9E700BFC0360020C035002035
:1085E000F0B414461D46002300E00133072B0ED8DB
:1085F0001A0108498A5A8242F7D101EB0312D2E9E3
:108600000267AF4208BFA642EFD1012000E0002080
:10861000F0BC7047C836002030B4C1698269C38895
:108620000D0A0C06C2F30C01994216D25B1A1344D0
:10863000A3F50053E41845F10005094A1368591CD5
:10864000116003F00703808A064A190102EB031345
:108650005052C3E9024530BC70475B1A1344E9E746
:1086600048370020C8360020C37D002B42D0C37895
:108670000A7802F0800203F07F0313430B70027844
:108680000B7803F07F0343EAC2130B700378002BCF
:1086900041D030B48378082B14BF002201224B78DC
:1086A00003F07F0343EAC2134B70C58803F08003D5
:1086B000C5F3861423434B708A7802F0030242EA22
:1086C0008502D2B28A70057A02F0FC02C5F3C104B9
:1086D00022438A70CB7803F01F0343EA4513DBB2D1
:1086E000CB70427A03F0E00302F01F021343CB7019
:1086F00030BC7047C3780A7802F0BF029B0103F0D8
:10870000400313430B70027903F0C00302F03F02F1
:1087100013430B70B3E770470023032B31D810B419
:1087200002E00133032B28D8C3EBC302164C04EB41
:10873000021292F84820012AF3D1C3EBC30204EBE2
:108740000212948AC2899442EBD1C3EBC3020E4C4D
:1087500004EB0212D2888A42E3D1C3EBC30204EBDA
:108760000212B2F8582012B1848AA242D9D1C3EBC6
:10877000C303054800EB031000E000205DF8044B44
:1087800070470020704700BF7C370020002300E0C6
:108790000133032B16D8C3EBC3020B4901EB0212C2
:1087A00092F84820022AF3D1C3EBC30201EB021274
:1087B000918A828A9142EBD1C3EBC303024800EB5A
:1087C00003107047002070477C37002008B9042050
:1087D00070470820704700000021164B1B688B4231
:1087E00026D90023144A02EBC10252689A421DD9CD
:1087F00010B4114A52F8312002EBC30412F83320AE
:1088000082420DD001330C4A02EBC10252689A42F7
:10881000EFD80131074B1B688B4205D90023F2E7E3
:1088200060685DF8044B70470020FAE70131D4E737
:10883000002070474C3700205037002070B58CB0B6
:1088400006460D4614462C22002101A81FF03EFFCB
:108850000F238DF80430ADF808604FF0000365F386
:1088600000038DF80A308DF80B4001A801F09AFA48
:108870000CB070BD30B58DB005460C462C220021E1
:1088800001A81FF023FF10238DF8043002958DF806
:108890000C4001A801F086FA0DB030BD00B58DB0D6
:1088A00010B913F1020F06D1074B186804F072FCDF
:1088B0000DB05DF804FB01218DF8041002930392C2
:1088C00001A801F06FFAEFE760370020F8B5069CC9
:1088D000002960D01E460F4615685168D2F808C0BE
:1088E000D368E5602161C4F814C0A36115695169BA
:1088F000E5612162002363700278D20922705AB3C5
:108900000423BB4249D8E17D41B3037803F07F03E0
:10891000E3700023A3709AB143789B0103F4FE53E4
:10892000827843EA9203E3808378DB0003F0180344
:10893000C27843EA52132372C37803F01F036372B1
:10894000002363623378032B21D83278144B53F819
:108950002230E3620020F8BD0123D2E70178C1F3A1
:108960008011E170017801F03F01217142B190F96D
:108970000130002B02DB0423A370CCE70823FBE7C4
:108980000421A1700B44BB42C5D90920E3E7784616
:10899000FFF78AFDD9E70920DDE70920DBE700BF03
:1089A000A898040070B50C461D4603789BB10426B8
:1089B0003244A26000F10C032360836A6360C36ADF
:1089C000E36000232374204604F056FF10B9636966
:1089D0001E442E6070BD0126EAE72DE9F0418EB0FD
:1089E0000D4616461C46804600282DD0002D2FD05F
:1089F000002C31D0636A0233059304F10C00E37854
:108A0000002B2DD00121A27801AF3B46082A14BFCC
:108A10000022012204F003FD0697CDF81C80B2B2BB
:108A2000ADF820200B9515440C95A3788DF83430C3
:108A3000237B022B16D00023ADF8283005A804F0C4
:108A4000E6FC0EB0BDE8F0817846FFF72DFDCDE7DE
:108A50007846FFF729FDCBE77846FFF725FDC9E704
:108A60000221D0E723692BB1236909931023ADF8C4
:108A70002830E3E77846FFF717FDF5E72DE9F041E9
:108A800088B004460D46C37D002B3CD0082605FB6C
:108A900006F8637AAB4238D0257201AB324602A9A0
:108AA0002046FFF77FFF074648BB4DB994F8533087
:108AB00033B9A369C3F30C03E380012384F8533073
:108AC000E37D7BB994F8523063B91DBBE06EB4F816
:108AD0004A10A27823468A1A0146FFF77EFF012337
:108AE00084F8523007992046FFF7BEFDE16E32460A
:108AF000414401981FF0C1FD02A804F0E3FE38468E
:108B000008B0BDE8F0810C26C1E7B4F84A60A6EBD6
:108B10000806C1E77846FFF7C7FCD7E770B50546FA
:108B20000E4609B100230B6095F85040002104E087
:108B3000631C85F850300134E4B26B7AA34210D341
:108B4000EA6C0123A3401A42F5D121462846FFF7DB
:108B500095FF014628B9002EEAD03368013333600F
:108B6000E6E7084670BDF0B589B004460E461546E6
:108B700083789A18C37D63B10B239A4221D801AB45
:108B800002A92046FFF70EFF074620B1384609B07C
:108B9000F0BD0F23F1E707992046FFF765FDE37D60
:108BA00043B12A46314601981FF067FD02A804F040
:108BB00089FEEBE723462A4601993046FFF70DFF71
:108BC000F4E70927E2E7000010B5044690F84830C2
:108BD000012B0CD103F05CFC237B012B0BD0094B48
:108BE000D968014404F1300003F01EFC10BD784642
:108BF000FFF75AFCEEE7A17D024BDA681B6903FB25
:108C00000121EEE76437002030B583B0002403E093
:108C10002846FFF7D9FF0134032C18D8C4EBC4034E
:108C20000C4A02EB031393F84830012BF3D10023D5
:108C30000193C4EBC40502EB051501A92846FFF713
:108C40006DFF0428E4D0019B002BE4D0E0E703B0E3
:108C500030BD00BF7C37002038B5044690F848305E
:108C6000022B09D1064B1D6803F012FC411904F1D7
:108C7000300003F0D9FB38BD7846FFF715FCF1E76B
:108C80006437002038B5044690F84830022B10D1E4
:108C90000A4B5D7D5A689B6803FB052503F0F8FBD2
:108CA000411904F1500003F0BFFB012384F8683040
:108CB00038BD7846FFF7F8FBEAE700BF64370020CD
:108CC00038B504460B460978C170002141629968A5
:108CD0000B2903D8197B49B3012100E00121217040
:108CE0000020A07029B199680731C9080139617263
:108CF00020720121E17504F10C055969186985E8B4
:108D00000300D989A18299692162197FA1751B6A23
:108D1000E362A26220461EF02BFD30B1237B012BC3
:108D200006D0E36A43F02003E36238BD0021D6E7B2
:108D30002023E362F9E710B50446808A02F09EFE24
:108D400001281CD1237BE3B194F91620002A1ADBF9
:108D5000E27D4AB1022B18D094F90330002B16DBC8
:108D6000A378B3B900200BE0E2780AB9012B12D145
:108D7000237893B9A378042B11D1002000E01020B0
:108D800010BD1020FCE70720FAE71020F8E70720C5
:108D9000F6E70720F4E70720F2E70020F0E70720D6
:108DA000EEE738B5044603784BB1C388C2698169E0
:108DB000808A06F023FF054645B9284638BDC269BA
:108DC0008169808A06F014FF0546F5E7E169002213
:108DD00001F00101A08AFFF731FDEEE72DE9F04730
:108DE00080460E4617464B1EDBB2012B0FD8B7F557
:108DF000C07F10D80024032C1AD8C4EBC403314A16
:108E000002EB031393F848304BB10134F3E7784693
:108E1000FFF74AFBEBE77846FFF746FBEAE7C4EBD0
:108E2000C40502EB0515384609F03BFBE86600E097
:108E300000255DB3EB6E002B42D043462C4608F173
:108E4000300ED3F800C058689968DA68C4F800C0DA
:108E50006060A160E260103310347345F1D10023EB
:108E6000EB64A5F84A70012E13D06FF00103AB62DA
:108E7000002385F86830144BAB652D66134BAB634C
:108E80002D64012002F082FA85F848602846BDE88A
:108E9000F0870F4B1B7D85F85130002385F8523049
:108EA00085F8533085F85030D8F828206A65A5F841
:108EB00058306FF00103AB62064BAB632D64E0E703
:108EC0001D46E3E77C3700203399020041920200FF
:108ED000643700208D92020000B585B000228DF825
:108EE0000F20A0B10B46024602320A600DF10F01BD
:108EF000184604F090FA9DF80F3043B10C4B1B68F4
:108F000013F0040F03D00B4B1B68032B04DC9DF8FC
:108F10000F0005B05DF804FB074BD3F80435074A92
:108F2000009240F215420649042005F025FBEEE7C9
:108F3000303000202C3000200010014060970400E9
:108F4000539704002DE9F04391B005460E461446B0
:108F50001F46D0F8188003784BB1C388C8F30C02C1
:108F60009A4230D29B1A4344A3F50053AB6105F1FA
:108F70000C00EB7853B30121AA780DF130094B4670
:108F8000082A14BF0022012204F049FAC5F818800B
:108F9000CDF810900596AB78E21A92B2ADF8182091
:108FA00032440A9209978DF82C300023ADF8203016
:108FB000EB78002B40D02B7B022B09D000236B6277
:108FC0000193029324E09B1A4344CFE70221D3E7A5
:108FD0001023ADF820302B690793EFE70134012C03
:108FE00014D810AB03EB840353F83C0C70B103A905
:108FF000FFF772FF0028F1D010AB03EB840454F8A4
:109000003C3C6B62002011B0BDE8F083019B3BB19A
:1090100002AB01AA2979286A10F08CFD0024DEE752
:109020002B7B022B2CD105F10C01E88910F03CFEC2
:109030000028C0D10520E6E72B7B012B01D00520BD
:10904000E1E7EB89ADF80430AB8AADF806300024D7
:10905000012C13D82946002341F8243F10AB03EB21
:10906000440333F83C0C10F08AFD03A9686AFFF74B
:1090700033FF08B90134EBE70020C4E70520C2E75D
:109080000520C0E770B5F0B00E4614461D4610AB83
:109090000A4601462046FFF755FF50B1214B1B6899
:1090A00013F0040F03D0204B1B68052B2DDC70B090
:1090B00070BD2046FFF775FE0028F8D103AB0122F2
:1090C0008DF80C20A28AADF80E20002204928DF8B3
:1090D000142010AA0692A178711AADF81C1008AAE3
:1090E00093E8030082E803000AAB2169E06883E8A3
:1090F0000300A37D8DF83830236A0C93636A0D93C7
:109100000F9505A800F04EFED1E7084BD3F80435C3
:10911000074A009240F203720649062005F02CFA35
:10912000C5E700BF303000202C3000200010014087
:10913000749704005397040010B50446C06E09F0FC
:10914000B4F904F1300003F057F994F84830022BD9
:109150000AD07022002120461FF0B8FA002084F8BF
:10916000480002F013F910BD04F1500003F044F977
:10917000EFE710B58CB0044690F84830012B0FD1C2
:1091800001238DF80430636D029303F081F903909D
:1091900001A800F007FE2046FFF7CEFF0CB010BD7F
:1091A0007846FFF781F9EBE730B585B00D46044608
:1091B000D0B1E18894F84830022B19D094F84830A7
:1091C000022B1ED02946606DFFF754FB2046FFF7A7
:1091D000B3FF164B1B6813F0040F03D0144B1B682E
:1091E000032B12DC05B030BD7846FFF75DF9E0E7F0
:1091F000637813F0020FE1D00022A08A1EF012FB68
:10920000DCE72046FFF708FADCE70A4BD3F8043521
:1092100094F8482002950192074A009240F2F31216
:109220000649042005F0A8F9DCE700BF3030002033
:109230002C30002000100140A09704005397040038
:1092400008B508460021FFF7AFFF08BD08B5037B4E
:10925000012B02D0FFF78DFF08BD0121FFF7A4FF0E
:10926000FAE7000008B590F8513053B1013B80F89F
:109270005130002380F85030034B186803F08AFF08
:1092800008BDFFF7E3FFFBE76037002010B50C4691
:1092900091F84830012B03D12046FFF7E3FF10BDC2
:1092A0007846FFF701F9F7E7062976D1F0B585B0E2
:1092B00015460678B20102F4FE5241788478C378EC
:1092C0001B0443EA0463047943EA042344791C43FE
:1092D00076B242EA91012846FFF71EFA0746E0B14E
:1092E000002E2FDBC289A98A8A422BD02B4B1B6808
:1092F00013F0040F3ED02A4B1B68012B3ADD294B9B
:10930000D3F8043502910192274A009240F27D621F
:109310002649022005F030F92CE0204B1B6813F0A1
:10932000040F27D01E4B1B68012B23DD1D4BD3F8E8
:1093300004351F4A009240F279621C49022005F070
:109340001BF917E0002E17DBFD6C2543FD64BCB153
:109350003B78D3B17B7A5A1C01239340013B9D4259
:1093600017D0002187F850103846FFF7D7FB384652
:10937000FFF72AFC05B0F0BDAB8AA7F85830E3E749
:1093800003213846FFF710FFF4E77846FFF78CF823
:10939000E0E73846FFF7EDFEECE77047303000209D
:1093A0002C30002000100140F49704005397040073
:1093B000C49704002DE9F0418AB007460E461446D2
:1093C0001D461046FFF7EDFC50B994F80380B8F144
:1093D000000F08D12B46224631463846FFF764FF7E
:1093E0000AB0BDE8F0814046FFF7F6F902460028D2
:1093F000F6D08DF80480236A0793A38AADF8123063
:1094000005AB2169E06883E80300A37D8DF8203077
:109410000297039623788DF81030E36A0993294662
:1094200001A89047DCE710B5547814F0010F03D081
:10943000D47D14B1FFF7BEFF10BDFFF723FEFBE79D
:10944000F8B505460E4614461F46537813F0020F32
:1094500006D13B462246711E681CFFF7E4FFF8BDAB
:109460000123C9B21EF0F8F8F3E70000F0B5C7B069
:109470000F46164682783244C37D2BB14FF4807379
:1094800093427CD3002303E04FF4C073F8E7013329
:10949000032B1AD8C3EBC3043B4D05EB041494F81B
:1094A00048100129F3D1C3EBC30105EB01118C8AEC
:1094B000818A8C42EBD1C3EBC30105EB0111CC894E
:1094C000C1898C42E3D1082552E00121FFF786FCD7
:1094D0000446002855D032463946C06E1FF0CDF8FC
:1094E0000023459345A92046FFF718FB054608B120
:1094F000042840D1459B0BBB244B1B6813F0040F81
:1095000035D0234B1B68032B31DDB4F84A70802F14
:1095100028BF80270023BB4214D2E26ED25C1D49D3
:109520000D68100959002E5C04A800F8136002F0C1
:109530000F020131AA5C42540133ECE72046FFF7E9
:1095400043FBD9E704AA002302F8173003F1804354
:1095500003F58833D3F8043502920F4A01920F4A7B
:1095600000924FF4AC620E49042005F005F8002586
:10957000284647B0F0BD2046FFF7DEFDF8E7092595
:10958000F6E70425F4E700BF7C37002030300020E8
:109590002C300020343000203898040098940400C7
:1095A0005397040070B504460D461646FFF7C3FBFB
:1095B00030B923782BB1324629462046FFF756FFB3
:1095C00070BD324629462046FFF7CDFAF8E7000085
:1095D00038B504460D46CB695B780371CB691B78BF
:1095E00083F00103C370CB6943628B8A0B2B07D8CE
:1095F000CB7A002B40D10B7B012B02D0002300E063
:1096000001232370002B3CD0287B022836D0FFF7A3
:10961000DDF8A070AB8A03440B331E4A82FB0323A0
:109620005B10013B6372002323720023E37504F196
:109630000C0395E8030083E80300AB6923622B89E0
:10964000A382AB7AA3752B6AA362DF23E362284669
:1096500010F09EFC20B12B78012B15D0FF23E36284
:1096600020461EF085F830B1237B012B0ED0E36A33
:1096700043F02003E36238BD0123C2E7064B987D27
:10968000C5E70423A370D0E72023E8E72023E362A3
:10969000F1E700BFABAAAA2A6437002010B54FF447
:1096A000E072002113481FF011F806F073FA00244D
:1096B000114B1C608022214610481FF007F8104B08
:1096C000104A1A60104A5A604CF250329A600F49A0
:1096D000D9601A6104221A759C7508225A750C48C3
:1096E00003F038FD0B4B18600B4B1C600B4806F069
:1096F0004BFD10BD7C37002048370020C8360020C5
:109700006437002080969800F049020020A10700ED
:1097100025990200603700204C3700209D88020008
:1097200008B506F057FA08BD98B110B58CB00446DC
:10973000036983B1C36983B1836983B10146684614
:10974000FFF746FFA28A21696846FFF72BFF0CB09E
:1097500010BD0E2070470E20F9E70E20F7E70E200F
:10976000F5E7000058B310B590B00A4604464368C8
:109770003BB383693BB3014604A8FFF7A1FA134B3F
:109780001B6813F0040F03D0114B1B68062B06DC7B
:10979000A268616804A8FFF705FF10B010BD0D4B6B
:1097A000D3F804352278A169029101920A4A009205
:1097B00040F605020949072004F0DEFEE8E70E2026
:1097C00070470E20E9E70E20E7E700BF30300020A9
:1097D0002C300020001001404898040053970400EA
:1097E000037B012B01D00020704730B591B00446B7
:1097F0000D46334B1B6813F0040F03D0314B1B682D
:10980000032B41DC04A900230593CDF81730E2882F
:10981000C2F3861092008DF811202A0E8DF81220C6
:109820002A0C8DF813202A0A8DF814208DF8155073
:109830006278022A0CBF80221A4642EA00028DF8A2
:1098400010204FF0060209924FF001028DF82C20F3
:10985000A28AADF82E200C938DF81C300891226A54
:109860000D928DF82830E36A0F9319D0E389ADF893
:109870002A30A37DF3B98DF838306FF0010107A8C5
:10988000FFF770FF11B030BD0F4BD3F804350F4A0E
:10989000009240F263220E49042004F06DFEB1E70D
:1098A0000DF10E0103A810F01BFABDF80C30ADF855
:1098B0002A30DEE7074B5B7D8DF83830DDE700BFEF
:1098C000303000202C30002000100140749804003B
:1098D000539704006437002090F84830022B00D0E2
:1098E000704710B5044690F86830022B00D010BDC8
:1098F000C16CFFF775FF0028F9D1002384F86830A8
:10990000F5E7000010B5002407E0C4EBC402130122
:1099100003481844FFF7E0FF0134032CF5D910BDCC
:109920007C37002008B5FFF76FF9FFF7EBFF012048
:1099300008BD10B50C4691F84830022B06D1022321
:1099400084F868302046FFF7C7FF10BD7846FEF761
:10995000ABFDF4E7F0B583B00446C5698269C388FE
:109960002F0A2E06C2F30C05AB4232D95B1B1344FF
:10997000A3F50053F61847F1000732463B46A08A8C
:10998000FEF72EFE002840F0A4802046FEF7FEFEE3
:10999000054648B3D0F81CC08269C3884FEA1C2131
:1099A0004FEA0C60C2F30C0C9C4515D2A3EB0C03E0
:1099B0001344A3F50053C01841F10001B94208BF98
:1099C000B0420DD38F4208BF864239D3284603B038
:1099D000F0BD5B1B1344CDE7A3EB0C031344EAE794
:1099E00005212846FFF7E0FBE388E269A169A08A28
:1099F00006F0D6F930BB32463B46A08A1DF036FF52
:109A0000002839D1627A531CE17D002944D0082214
:109A100002FB03F2002941D04FF48073934240D3FC
:109A200002212046FFF7DAF905460028CED10021B1
:109A30002046FFF7D5FE02210020FEF71BFFC5E7F9
:109A40000025C3E7E388E269A169A08A06F020FA4D
:109A500060B1237863B1617A4B1C012199400139CF
:109A60002046FFF7BDFE2046FFF79BF90025ADE736
:109A70007846FEF719FDEEE723784BB1617A4B1C6F
:109A80000121994001392046FFF7AAFE00259DE7F4
:109A90007846FEF709FDF1E70C22B9E74FF4C073F1
:109AA000BCE70D4B1B6813F0040F03D00B4B1B6876
:109AB000002B01DC002589E7094BD3F8043501921E
:109AC000084A009240F27F320749012004F054FD19
:109AD000F0E700257AE700BF303000202C3000206E
:109AE0000010014084980400539704002DE9F047CA
:109AF00082B007460E46154698461046FFF72AFFE5
:109B000000284ED004464D4B1B6813F0040F03D0C1
:109B10004B4B1B68032B47DC2046FFF79DF8237B4C
:109B2000012B4FD0E16C2B7A01229A40114238D19F
:109B30000A43E264A6F1040A2B7AEA7D002A49D09E
:109B40004FF0080C0CFB03FC617A8B4245D0002AD5
:109B500048D00823534547D1A269AB699A420BD23A
:109B600004F10C0E05F10C09B9E80F00AEE80F0086
:109B700099E803008EE80300E06E5246391D604408
:109B80001EF07BFD6B7813F0020F32D1E66C237868
:109B9000002B35D0637A5A1C01239340013B9E422F
:109BA00032D002B0BDE8F087264BD3F804352A7ACC
:109BB0000192254A009240F2A3322449042004F085
:109BC000DBFCA9E794F86830002BABD12046FFF707
:109BD00059F8A7E74FF00C0CB4E70CEB0A03A4F814
:109BE0004A30B9E70C23B5E704212046FFF7DCFA39
:109BF000D7E701232A46F1B238461DF02DFDC5E70F
:109C00007846FEF751FCC5E7E16C2046FFF7E8FD1A
:109C10006B7813F0020F0AD143462246B4F84A107B
:109C2000E06EFFF700FC2046FFF786FAB9E7012255
:109C3000E988A88A1DF0F6FDEEE700BF303000206D
:109C40002C30002000100140989804005397040025
:109C50002DE9F04190B0002856D00F4614461E461C
:109C60008046002A52D004AB00933346FEF72EFE06
:109C7000054618B1284610B0BDE8F08104A8FFF7EA
:109C80005AF805460028F5D104A81DF071FD28B149
:109C90009DF8113043F002038DF811300023029338
:109CA000039302A960880FF0FFFF28B19DF81130DF
:109CB00043F001038DF811302269E168208906F034
:109CC00027F838B19DF8113003F0FE038DF81130FC
:109CD000002BCFD09DF81130002BCBD013F0010F0B
:109CE00001D0039B08939DF8103033B1334604AA8A
:109CF00039464046FFF7FAFEBCE7334604AA394628
:109D00004046FFF79DFBB5E70E25B3E70E25B1E70B
:109D100020B3F8B50E460546164B1F68012F1FD815
:109D20000024B4420FD205EBC4035B68D3B115F82D
:109D3000340015F93430002B16DBB8B1FEF74CFDBA
:109D4000B0B90134EDE70C4B43F8375003EBC703D0
:109D50005E600137074B1F60002002E00E20704755
:109D60000420F8BD0E20FCE70B20FAE70F20F8E7EF
:109D70000F20F6E74C37002050370020084B1968B9
:109D800061B110B504E0064804F060FB214624B13F
:109D90000C680B79002BF9D0F5E710BD704700BFB8
:109DA0004039002038B5054630B1104B1C68C4B1AD
:109DB0000F4B01221A7004E07846FEF775FBF4E7BA
:109DC00024683CB12379002BFAD154F8043C28468E
:109DD0009847F5E7064B1B78022B03D0044B002273
:109DE0001A7038BDFFF7CAFFF8E700BF40390020FE
:109DF0003C39002010B5044630B100232372211DE8
:109E0000034804F0F8FA10BD7846FEF74DFBF4E77E
:109E10004039002010B5044658B10A4B1B78013B6D
:109E2000DBB2012B09D8074B02221A7001232372DF
:109E300010BD7846FEF738FBEFE7211D024804F01D
:109E400005FBF5E73C390020403900200A8883688B
:109E50009B5A07339BB223F0030313449BB202883F
:109E6000043A934200D900230B80704710B582B0AA
:109E700004468368C91AADF806100DF10601FFF714
:109E8000E5FFBDF80630A068184402B010BD008898
:109E9000043880B2704743888268D018D1520123B9
:109EA000837070478268002393704380838070477B
:109EB000073189B221F0030189B2428883889A422E
:109EC00004D29B1A99421EDC0020704710B59A42BA
:109ED0000FD90488A41AA14217D98B4217D3032C97
:109EE00003D98368134404229A70002343801846E0
:109EF00004E0826813449B780BB1042010BDFFF787
:109F0000D1FF0020FAE7042070470020F6E7042084
:109F1000F4E738B504460D468368828813448B42C3
:109F200002D07846FEF7C0FA0023AB70211D204610
:109F3000FFF78CFFA288A36813449B78042B00D002
:109F400038BD0023A380FBE710B50C468368428828
:109F500013448B4202D07846FEF7A6FA0023A37082
:109F600010BD70B5054614460E46002944D0002D9C
:109F700046D0B6F1005F08D94FF08053D3F80C31CA
:109F800003F50023B6EB832F0ED3B6F5000F08D9E7
:109F90004FF08053D3F80C3103F50053B6EB832F09
:109FA00002D37846FEF780FA631E3344B3F1005FB4
:109FB00008D94FF08052D2F80C2102F50022B3EB01
:109FC000822F0ED3B3F5000F08D94FF08052D2F88C
:109FD0000C2102F50052B3EB822F02D37846FEF734
:109FE00063FA042C10D92C8000236B80AB80AE6008
:109FF000043C3480B37070BD7846FEF755FAB6E77E
:10A000007846FEF751FAB4E77846FEF74DFAEAE7EC
:10A0100038B50446A0B16288A36813449B78012B2D
:10A0200012D0EFF3108572B6A388A16819448B781B
:10A03000032B0DD02046FFF735FF05B962B638BDBA
:10A040007846FEF731FAE6E77846FEF72DFAE8E7BC
:10A050002046FFF70BFFA368C31A638000238370B9
:10A06000EBE72DE9F0410E4614460546D0B1EEB1BE
:10A070006A88AB6813449B78012B1BD024B3284615
:10A08000FFF705FFA04221D3EFF3108872B62146F7
:10A090002846FFF70DFF074680B1B8F1000F16D133
:10A0A00062B614E07846FEF7FFF9E0E77846FEF77F
:10A0B000FBF9DDE77846FEF7F7F9DFE721462846AA
:10A0C000FFF7E9FE3060E8E7092700E00927384696
:10A0D000BDE8F081F8B50C4615460646E0B1FCB186
:10A0E000A378012B20D12388AB4221D325B3EFF3F2
:10A0F000108772B625800223A370F1183046FFF74F
:10A10000A5FE7388B288934203D0B268134400223C
:10A110009A7007B962B6F8BD7846FEF7C5F9DEE772
:10A120007846FEF7C1F9DBE77846FEF7BDF9DAE7D6
:10A130007846FEF7B9F9D9E77846FEF7B5F9D6E7DC
:10A1400070B50C46054690B1ACB1EFF3108672B60F
:10A15000AA88AB6813449A78042A10D09A78022A05
:10A1600015D0032A18D0052006B962B670BD78460E
:10A17000FEF79AF9E8E77846FEF796F9E5E7291D34
:10A180002846FFF763FEAA88AB681344E6E703227C
:10A190009A7023600020E7E77846FEF785F90020F3
:10A1A000E2E738B5044680B1EFF3108572B6A088B7
:10A1B000A16801448B78042B0BD08878022814BF47
:10A1C0000020012005B962B638BD7846FEF76CF96B
:10A1D000EAE72046FFF74AFE0146EEE738B50546B6
:10A1E00078B1EFF3108472B6A888A9680144887822
:10A1F000C31EDBB2012B08D82846FFF737FE014605
:10A20000F5E77846FEF750F9EBE7022814BF002087
:10A21000012004B962B638BD70B50C46064678B167
:10A2200094B1EFF3108572B6A378012B10D0032BF5
:10A2300013D121463046FFF76CFE05B962B670BDFA
:10A240007846FEF731F9EBE77846FEF72DF9E8E7B7
:10A2500021463046FFF778FEEFE77846FEF724F90F
:10A26000EBE710B5EFF3108472B683888168194468
:10A270008B78042B06D08878B0FA80F0400904B9B6
:10A2800062B610BDFFF7F2FD0146F4E7024B002273
:10A290001A769A60022070474439002008B5064BB0
:10A2A000986800221A605A609A60DA601A615A61EE
:10A2B0009A6105F029F908BD4439002000B585B040
:10A2C0000A4BDB6802228DF8002001934FF4805383
:10A2D0000293074A6946012001F0E6FA18B9012005
:10A2E00005B05DF804FB0020FAE700BF4439002008
:10A2F0006239002000B585B00A4B1B6802228DF838
:10A30000002001934FF480530293074A69460120CD
:10A3100001F0CAFA18B9012005B05DF804FB00206D
:10A32000FAE700BF6439002062390020164BDA6872
:10A33000137951795B1A03F57F2303F6FF7302EB60
:10A3400003339A4205D002F580520F4BDA600320A6
:10A35000704700B585B00D4B1B6801208DF80000DB
:10A3600001930B4B0393042302930A4A694601F0BD
:10A370009BFA18B1002005B05DF804FB024B0122E6
:10A380001A760220F7E700BF443900206439002024
:10A39000683900206239002000B585B00C4BDA68BE
:10A3A0000C4B1B68043301208DF8000001920393CD
:10A3B00040F6FC730293084A694601F075FA28B921
:10A3C0000120034B187605B05DF804FB0020FAE786
:10A3D00044390020643900206239002000B585B07E
:10A3E0000A4B1B6801208DF800000193084B039372
:10A3F00004230293074A694601F056FA18B901206E
:10A4000005B05DF804FB0020FAE700BF64390020C6
:10A41000503900206239002010B584B0104BDA6842
:10A420001478104B1B68043301208DF80000019351
:10A43000039202940C4A694601F036FA70B9094B4E
:10A440001B6804F0FC041C440434054B5C61D968AF
:10A450000A780A441A61012004B010BD0020FBE70D
:10A4600044390020643900206239002008B50023F7
:10A470000A2B09D8064A52F82320824201D0013320
:10A48000F6E7044A536002E07846FEF70DF808BD8F
:10A49000589904004439002010B5214BDB6853B1B2
:10A4A0001F4B1B7E5BB91E4B5B680A2B26D9784677
:10A4B000FDF7FAFF22E07846FDF7F6FFF0E7784671
:10A4C000FDF7F2FFEFE7164A5368013353600A2B9A
:10A4D00021D97846FDF7E8FF1DE0114B00225A60B4
:10A4E00019E00F4B1B7E1BB10D4B02221A7012E0BC
:10A4F000FFF7D4FE0FE00A4B1B7E83B9084B5A6866
:10A50000084B53F82230984704460228E9D0032824
:10A51000E3D00128D7D0012CEDD0032CEBD010BD17
:10A520004439002058990400104B1B681B685A1EC0
:10A5300012F1030F18D8C3F30B020AB100207047C1
:10A5400010B50B4AD36000231376537601241470A0
:10A5500093600848FFF78AFF0749204601F092F907
:10A56000FFF79AFF204610BD002070476439002095
:10A5700044390020BDA202007DA5020008B50B7879
:10A58000032B06D00B4B1B78012B06D0022B0BD0D4
:10A5900008BD084B00221A76F4E7064B1B7E002B01
:10A5A000F6D1FFF779FFF3E70B78032BF0D1FFF734
:10A5B00075FEEDE74439002000B585B0174BDB6828
:10A5C00018784FF6FF7203F58051184405F092FD9C
:10A5D000E0B10246114BD9680B780B44984217D072
:10A5E0000E4B5B7E83B10E4B01208DF80000019273
:10A5F0000393042302930B4A694601F055F948B9C5
:10A600000120064B187606E0074BEDE7012002E03B
:10A61000012000E0002005B05DF804FB4439002073
:10A620004C9C040062390020489C040008B5104B83
:10A63000DB681878002203F58051184405F05AFDB4
:10A6400008B1012008BD0A4BDA68137951795B1A09
:10A6500003F57F2303F6FF7302EB03339A4205D021
:10A6600002F58052024BDA600320EBE70220E9E7B3
:10A6700044390020F0B585B0514BDE6872793379EA
:10A68000591E8A4214D006F580510D780D444D496B
:10A690000968081D0F7907449B1A06EB03366B887F
:10A6A000013B9BB247F6FE62934260D92C461AE00A
:10A6B0000120434B58767EE07846FDF7F5FE15E025
:10A6C00024F47F6424F00F0404F5805423781C44A0
:10A6D000A64247D9A54247D26388013B9BB247F6C1
:10A6E000FE62934211D92388002BE5D0238804EB26
:10A6F000830323F47F6222F00F029342E0D062884A
:10A70000B2F5FE4FDCD01C46E2E725462FE0784646
:10A71000FDF7CAFE15E024F47F6424F00F0404F56D
:10A72000805423781C44A64220D9A5423BD263889A
:10A73000013B9BB247F6FE62934211D92388002B5E
:10A74000E5D0238804EB830323F47F6222F00F0219
:10A750009342E0D06288B2F5FE4FDCD01C46E2E7BF
:10A76000254604E0002502E0002500E00025E5B1D3
:10A77000144B19686A8801F58051384605F0BAFC17
:10A78000074690B101200E4B18768DF80000019518
:10A790000D4B0393042302930C4A694601F084F89D
:10A7A00058B92C46CAE70025E1E7B5FA85F56D09E9
:10A7B000034B5D76012005B0F0BD0020FBE700BF34
:10A7C0004439002064390020449C04006239002090
:10A7D0002DE9F04186B0644B1B692BB1624B5B697C
:10A7E00033B14FF0000846E07846FDF75DFEF5E72F
:10A7F0007846FDF759FEF4E77846FDF755FE15E07B
:10A8000025F47F6525F00F0505F580552B781D444F
:10A81000AF421CD9AC421ED26B88013B9BB247F6BB
:10A82000FE62934211D92B88002BE5D02B8805EBD3
:10A83000830323F47F6222F00F029342E0D06A8800
:10A84000B2F5FE4FDCD01D46E2E72C4600E00024C6
:10A850001CB100943AE00024FAE700230093019B26
:10A86000002B5CD14FF00108002C77D0628847F6AE
:10A87000FF739A4272D0B8F1000F73D13A4B5A6904
:10A8800022F47F6626F00F06B61A06F580561C697C
:10A89000DF683B797A799B1A07EB03370023019332
:10A8A0006388013B9BB247F6FE629342D1D92546AD
:10A8B000B9E77846FDF7F8FD23E024F47F6424F03F
:10A8C0000F0404F58054237823441C46A742C6D9BC
:10A8D0002388019A02EB83029642C0D9009B634011
:10A8E00023F47F6323F00F03002BB8D16388013B6F
:10A8F0009BB247F6FE618B42B1D801922388002BB0
:10A90000D7D0238804EB830323F47F6222F00F0265
:10A910009342D2D06288B2F5FE4FD6D1CDE7124A2B
:10A92000526901208DF808000392009A0592049361
:10A930000E4A02A900F0B8FF70B90B49019B23F041
:10A9400003024B6913444B6114B1074B1C618BE745
:10A950007846FDF7A9FDF8E7002000E0012006B0E9
:10A96000BDE8F0810120FAE7443900206239002077
:10A9700000B585B0274B00221A7040F6F8731B68AB
:10A98000B3F1FF3F09D0B3F1FF3F0CD07BB1B3F17E
:10A99000FF3F37D0A3F580520FE01F4A1268B2F193
:10A9A000FF3FF0D103E01C4A1268002AEFD14FF0BC
:10A9B00080514B690A6902FB03F2A2F58052174BE2
:10A9C0001A60174B1B6813F4801F16D0154B1B68B9
:10A9D000062B12DD144BD3F8043540F6F8710968E4
:10A9E000B1F1FF3F13D002920191104A009240F260
:10A9F00076220F49072003F0BFFDFFF795FD05B054
:10AA00005DF804FB044B1A68A2F58052D5E70249B1
:10AA10000968E8E76039002014100010643900204C
:10AA2000303000202C300020001001402499040018
:10AA30000B99040010B50446B0B1104B1B78BBB1A4
:10AA40000E4BD968E3685879A3EB0032914211D3D9
:10AA50001A79121A02F57F2202F6FF7203EB023313
:10AA6000994209D8012004E07846FDF71DFDE4E78E
:10AA7000002010BD0020FCE70020FAE74439002048
:10AA8000024B1878003818BF012070474439002065
:10AA900010B50446124B1B78BBB92378032B18D191
:10AAA0000F4B9C60E268DA600E4B1B78ABB10A2258
:10AAB0000B4B5A6000221A76012018705A760A4908
:10AAC00000F0E0FEFFF7E8FC10BD7846FDF7ECFC77
:10AAD000E3E77846FDF7E8FCE2E70022E8E700BF9D
:10AAE00044390020603900207DA50200014B186820
:10AAF000704700BF6439002010B5044680B1636818
:10AB00001BB123680BB1A36813B97846FDF7CCFCE1
:10AB1000A3685A1E134207D10023E360236110BDCE
:10AB20007846FDF7C1FCEAE77846FDF7BDFCF3E7A0
:10AB3000F8B500B30F4604468368F3B1EFF3108510
:10AB400072B60369C268934211D001684268866890
:10AB5000013E334003FB021117B138461DF08DFD55
:10AB600023690133236155B962B62846F8BD05B99A
:10AB700062B60525F9E70E25F7E70925F5E7002573
:10AB8000F3E700000246C0F30B0040BB49B310B42A
:10AB900001F6FF710C0B144B0221C3F80415124B84
:10ABA000D3F80034002BFAD001460AE00E4BC3F86C
:10ABB00008250D4BD3F80034002BFAD002F5805253
:10ABC0000131A142F2D3084B0022C3F80425064B01
:10ABD000D3F80034002BFAD05DF8044B70471020F6
:10ABE00070470920704700BF00E0014010F0030FDC
:10ABF0002FD110B4044611F0030F2CD16AB312F018
:10AC0000030F2CD19008174B0122C3F80425154BD4
:10AC1000D3F80034002BFAD002E00434043110469B
:10AC2000421E50B10B68B3F1FF3FF6D023600D4BCD
:10AC3000D3F80034002BFAD0EFE70A4B0022C3F818
:10AC40000425084BD3F80034002BFAD05DF8044BF0
:10AC50007047102070471020F8E70920F6E7092018
:10AC6000F4E700BF00E00140094B1B7813F0040F2C
:10AC700002D00378122B00D07047064B1A68064B9F
:10AC80005A60034B1A786FF382021A70F4E700BF20
:10AC9000103A0020003A00209C39002010B582B004
:10ACA00001900C46000C012810D12368094A13605A
:10ACB00009490B7843F001030B705B0883F0010333
:10ACC00003F001031371002002B010BD7846FDF7B8
:10ACD000EBFBEAE7003A0020103A002010B582B002
:10ACE00001900C46000C02280FD12268094B1A6013
:10ACF00022791A71002058719871D871064A137818
:10AD000043F00203137002B010BD7846FDF7CCFB90
:10AD1000EBE700BFF8390020103A002010B582B0F0
:10AD200001900C46000C032806D1054B18682060E2
:10AD30001B79237102B010BD7846FDF7B5FBF4E72F
:10AD4000003A002010B582B001900C46000C032898
:10AD50000CD1084B2068186022791A71064A1378C2
:10AD600043F001031370002002B010BD7846FDF7D8
:10AD70009BFBEEE7003A0020103A002010B582B0AD
:10AD800001900C46000C042805D1054B03CB206034
:10AD9000616002B010BD7846FDF786FBF5E700BFA5
:10ADA000F839002010B582B001900C46000C042840
:10ADB0000BD1084B2068616803C3074A137843F03E
:10ADC00002031370002002B010BD7846FDF76CFB43
:10ADD000EFE700BFF8390020103A002000B583B03B
:10ADE0000190000C032806D1054B00221A601A714D
:10ADF00003B05DF804FB7846FDF756FBF4E700BFAF
:10AE0000003A002000B583B00190000C042806D160
:10AE1000054B00221A605A6003B05DF804FB7846C7
:10AE2000FDF742FBF4E700BFF839002000B585B01C
:10AE3000184B1B7813F0400F0FD0164B1B7813F0F4
:10AE4000040F07D1144B5B6803F500530193B3F172
:10AE5000807F06D905B05DF804FB7846FDF724FB3A
:10AE6000EBE70E4B1B788DF808300A4A137843F055
:10AE7000040313700023ADF80C300323ADF80E303B
:10AE800001A9039806F00AFB0028E3D07846FDF7F5
:10AE90000BFBDFE7103A00209C390020113A00201C
:10AEA00000B585B00022ADF809200F4B99680191DB
:10AEB0001B7B8DF808300D490B780133DBB20B702A
:10AEC0008DF80B30ADF80C200423ADF80E300DEBEF
:10AED0000301039806F0E2FA10B905B05DF804FB2F
:10AEE0007846FDF7E1FAF8E79C390020113A002096
:10AEF00000B585B00F4B9A6801921A7B8DF8082037
:10AF00001B8AADF809300C4B1B788DF80B300023F1
:10AF1000ADF80C300423ADF80E300DEB03010398AF
:10AF200006F0BCFA10B905B05DF804FB7846FDF7F1
:10AF3000BBFAF8E79C390020113A002000B58DB02B
:10AF40000B4B1B7B012B0ED0094A926804928DF8A3
:10AF50000830039002238DF8043001A8FEF722FF89
:10AF60000DB05DF804FB024A9268013A0492EEE7E4
:10AF70009C39002008B51D481D4B036000F02EFFD2
:10AF80001C4B1B7813F0200F2AD103F00303032B73
:10AF900014D1194B1968194A916019791173B3F8D2
:10AFA00005001082DB79164A1370164A1279934213
:10AFB00017D0B1B9114B00221A6007E00F4B0022E5
:10AFC0001A609A601A731A82FFF76AFF0B4B1A68AD
:10AFD0005A60084A137843F040031370FFF726FFC6
:10AFE00008BD084B1A68054B1A60EFE7EC390020E2
:10AFF00069AC0200103A0020F83900209C3900208A
:10B00000113A0020003A002010B582B00024ADF8BB
:10B0100000400123ADF80230009806F070FAADF858
:10B0200004400223ADF80630019806F068FA02B039
:10B0300010BD000008B5002006F088FA084B002279
:10B040001A605A609A60DA601A61064A137803F04F
:10B05000DF0343F040031370FFF7E8FE08BD00BFB5
:10B060009C390020103A002038B50C4D00242C608B
:10B070006C60AC60EC602C6101F00AFA084B58601F
:10B08000084A9A60084ADA601C615C61074B1A78CA
:10B0900064F3C3021A706C6038BD00BF9C39002095
:10B0A0007839002009B2020000879303103A00208B
:10B0B00008B50C4B1B7813F0100F00D008BD0A48E0
:10B0C0000A4B036000F08AFEFFF754FFFFF79CFF76
:10B0D000074801F061F9034A137843F01003137035
:10B0E000ECE700BF103A00209039002061B3020065
:10B0F00078390020034B1878800880F0010000F0B8
:10B1000001007047103A002010B501F0ABFF174B5B
:10B110001B7B1BBB154B9B7B2BBB144B1A8A41F231
:10B1200082639A4206D8124B1B7813F0080F05D0A1
:10B13000012300E001231BB9082410E00023FAE7F3
:10B140000A4B01221A7300241C829A6801329A6009
:10B15000FFF7A6FE2046FFF7F1FE00E0082401F00D
:10B16000C5FF204610BD0824F9E700BF9C39002028
:10B17000103A002010B501F075FF214B5B7BABB19D
:10B180001F4B9B7B03BB1E4B1A8A41F282639A4280
:10B1900006D81C4B1B7813F0080F05D0012300E0E4
:10B1A00001239BB1012302E00023FAE700231C46A0
:10B1B0000BB3134B00225A731B7B4BB1012B0ED0E8
:10B1C0007846FDF771F916E00023F0E70023EEE77B
:10B1D000FFF79AFF78B17846FDF766F90BE0084B68
:10B1E00000201860586018731882FFF7A7FEFFF759
:10B1F00057FEFFF71BFE01F079FF204610BD00BF90
:10B200009C390020103A002008B52C4B1B7BDBB189
:10B21000012B2ED07846FDF747F9284A138A0133CF
:10B220009BB21382264AA2FB03121209C2EB02123E
:10B23000A3EB42039BB2002B3DD0204B5B8A13B1A2
:10B24000013B1E4A538208BD1C4B1A8A41F282639D
:10B250009A4206D81B4B1B7813F0080F07D0012326
:10B2600000E00123002BD8D0FFF784FFE5E700239F
:10B27000F8E7124B1B8A41F28262934206D8114AC8
:10B28000127812F0080F14D0012200E00122002AE7
:10B29000C3D042F2B012934202D9084B01225A7332
:10B2A000FFF768FF0028C8D1044B5B7B012BB4D1AA
:10B2B000C3E70022EBE7FFF71BFEBEE79C39002047
:10B2C00089888888103A002010B5244B1B7B002BFE
:10B2D00035D10446214B5B8A2BBB1AB91F4B9B68A7
:10B2E0008B4205D3FAB11D4B9B6801338B421AD2B6
:10B2F0001A4B9B682A338B4223D3184B9B7B03BB8F
:10B30000164B996000221A605A601A8242F6065162
:10B3100059825A731A73FFF7C3FDFFF787FD204662
:10B32000FFF70CFE0DE062B10C4B9B6801338B42C2
:10B3300007D10A4B01225A73FFF71CFF01E0012BD2
:10B3400000D010BD002AFCD1044B9B688B42F8D181
:10B35000024B01225A73FFF70DFFF2E79C390020E0
:10B360000378042B00D0704743681B78002BFAD079
:10B3700010B58468027E437E012A14BF0022012298
:10B38000416904F11000FFF79FFF10BD08B538B107
:10B390000D4B01229A730D4A13680133136008BDE7
:10B3A0000A4B1B685BB1094A1368013B1360002B11
:10B3B000F5D1054B00229A73FFF7DCFEEFE77846E4
:10B3C000FDF772F8EFE700BF9C3900206C390020D0
:10B3D00000B58DB0ADF808008DF81020039103235F
:10B3E0008DF8043001A8FEF7DDFC0DB05DF804FB1C
:10B3F000014B9868704700BF9C390020054B1B7BB0
:10B40000012B02D0034B98687047024B98680138B3
:10B41000704700BF9C3900201D4B1B7813F0400F74
:10B4200034D070B504460D461A4B1A685B689A42D0
:10B4300028D2184B1B7B012B17D0174B9A4216D2E0
:10B44000144B1A685B68403B9A4218D2EFF310869F
:10B4500072B6104A1368591C11602B60FFF7CEFFBB
:10B46000206006B962B6002070BD0C4BE6E7094BC0
:10B4700001225A73FFF77EFE0028E7D1E0E7FFF7CD
:10B48000D5FCE3E7FFF7D2FC0F20EDE70F20704774
:10B49000103A00209C390020FFFF7F0000E0FF00F1
:10B4A000044B9B68584010F0010F00D0013B184638
:10B4B000704700BF9C390020014B187B704700BFCC
:10B4C0009C390020F8B5104B1B7813F0200F01D0E9
:10B4D0000820F8BD17460C4E43F0200333700B4D87
:10B4E000A860297300242C82FFF7DAFC2046FFF7BE
:10B4F00025FD2F606F60337843F040033370FFF712
:10B5000095FC2046E5E700BF103A00209C3900205A
:10B5100008B50022FFF7D6FF08BD00002DE9F04175
:10B52000002624E02449BC2303FB04F3CA5A013259
:10B53000CA520221284602F0A3FD01370221284603
:10B5400002F06EFD014679B11B4ABC2303FB0423C4
:10B55000D3F80880B8F1000FE4D0BC2303FB04F358
:10B56000D25A3046C047DDE797B90136F6B2022E0F
:10B570001FD83446BC2303FB06F308330E4D1D448D
:10B5800004350221284602F04BFD01460027DAE788
:10B59000284602F0DDFD0828E7D1074BBC2202FB5C
:10B5A0000434A368002BE0D00022044930469847B9
:10B5B000DBE70120BDE8F0811C3A002094990400EB
:10B5C00008B5082383731023437300F11C03436100
:10B5D0000323037300F1180303610C3002F08AFDAA
:10B5E00008BD000008B50378012B06D0022B07D058
:10B5F0007846FCF759FF002003E04FF4A97000E003
:10B60000004808BD645E010008B50378012B07D02F
:10B61000022B13D07846FCF747FF4FF4FA7308E08B
:10B620008368591A89084FF4A97303FB01F303F5E2
:10B63000FA730748984228BF184608BD8368591A0C
:10B64000090B044B03FB01F303F5FA73F1E700BFA9
:10B6500060850100645E010038B5044601210C30AC
:10B6600002F0DEFC054678B1084BC4F89C3000239C
:10B67000C4F8A0306168FFF7C7FFC4F8A800C4F899
:10B68000AC40012384F8B830284638BDADB702007D
:10B6900010B50446FFF7E0FF20B104F19C000FF065
:10B6A0002DFA00B910BD7846FCF7FEFEFAE700005F
:10B6B000F8B505460C46164617680378012B19D1D4
:10B6C0001249A1FB0431C9098B00AC68E41BB4EB3F
:10B6D000810F00D31C468CB1686827F00307E96826
:10B6E000224639443844FFF781FA58B933681C447C
:10B6F0003460F8BD7846FCF7D7FEE1E77846FCF702
:10B70000D3FEE9E77846FCF7CFFEEFE7EB5DF260AA
:10B71000F8B506460C46154617680378022B17D174
:10B72000114BA3FB04231B0C1A03B468E41BB4EBFA
:10B73000033F00D314467CB1706827F0030721460D
:10B740003844FFF71FFA58B92B681C442C60F8BD29
:10B750007846FCF7A9FEE3E77846FCF7A5FEEBE7A1
:10B760007846FCF7A1FEEFE7B77609BB38B505468A
:10B770000C4611462378012B06D0022B0FD07846B9
:10B78000FCF792FE002304E0021D2046FFF790FF25
:10B79000A3686868984214BF0020012038BD021DCC
:10B7A0002046FFF7B5FFA368F3E700002DE9F84353
:10B7B0000F46D1F8A850254B1B786BB90446A5F568
:10B7C000FA7501F10C080121404602F029FC0646F9
:10B7D00048B14FF0000924E00FF0CCF9002387F8BE
:10B7E000B830BDE8F8837846FCF75EFEF1E70FF06D
:10B7F000C1F90121404602F043FC00237B6087F839
:10B80000B830134B186801F0C5FC3846FFF740FF0D
:10B81000E7E7A4EB00093046FFF7E4FE4844A842FE
:10B820000DD8A5EB090231463846FFF79FFF0028E7
:10B83000DDD101F0E9FAB0EB0409ECD5E9E70FF04E
:10B8400099F93846FFF724FFCBE700BF183A0020EC
:10B85000143A002010B5084801F07CFC074B186032
:10B86000002406E0064BBC2000FB0430FFF7A8FED6
:10B870000134022CF6D910BD1DB50200143A002087
:10B880001C3A002038B504460D46022805D8054864
:10B89000BC2303FB0404A56038BD7846FCF704FE16
:10B8A000F5E700BF1C3A00202DE9F84305460C4699
:10B8B0001746022816D8CCB12378012B1AD0022BB8
:10B8C0003ED16368C3F30B03002B31D1A368C3F3EC
:10B8D0000B03002B30D1A368002B34D17846FCF742
:10B8E000E3FD30E07846FCF7DFFDE4E77846FCF75F
:10B8F000DBFDE1E7636813F0030F0DD1E36813F09C
:10B90000030F0DD1A36813F0030F0DD1A368D3B9B2
:10B910007846FCF7C9FD16E07846FCF7C5FDEDE773
:10B920007846FCF7C1FDEDE77846FCF7BDFDEDE795
:10B930007846FCF7B9FDC9E77846FCF7B5FDCAE7DC
:10B940007846FCF7B1FDEFF3108872B6BC2606FB13
:10B9500005F606F108032A4E1E440436002130463F
:10B9600002F05EFB814678B30021304602F088FB8E
:10B9700020686168A268E368C9F80000C9F804108B
:10B98000C9F80820C9F80C302FB11D4ABC2303FBAD
:10B9900005235B883B801A4ABC2303FB05235A8896
:10B9A00001325A8093F8B83083B9164B1B7813B123
:10B9B0000024A1460CE0124BBC2000FB0530FFF731
:10B9C0004BFE8146002403E0042401E00024A1464C
:10B9D000B8F1000F00D162B6B9F1000F09D0BC2058
:10B9E00000FB05F09830064D284404300FF086F82F
:10B9F00010B92046BDE8F8837846FCF755FDF8E716
:10BA00001C3A0020183A002038B50446EFF31085A0
:10BA100072B610B9164B1B6873B18CB1144A136817
:10BA200001331360124B1B68003B18BF0123114AFE
:10BA3000137005B962B638BD7846FCF735FDECE702
:10BA40000B4B1C68013C1C6034B1EBE7BC2000FBD5
:10BA50000420FFF71DFE0134022CE3D8064ABC2364
:10BA600003FB042393F8B830002BF4D1EEE700BFBA
:10BA7000503C0020183A00201C3A002018B1830BDB
:10BA8000024AD05C70470020704700BFA4990400B0
:10BA900012DF704700B583B001F0CAFF40B10C4B14
:10BAA0001B6813F0400F03D00A4B1B68012B02DC0C
:10BAB00003B05DF804FB084BD3F804350190074A46
:10BAC000009275220649022002F056FDF0E700BF01
:10BAD000303000202C30002000100140089A040073
